:020000040000FA
:1000000058B70120052C00007B750000F12B000083
:10001000F12B0000F12B0000F12B0000F12B000070
:10002000000000000000000000000000A92C0000FB
:10003000F12B000000000000F12B0000F12B00006C
:10004000192E0000192E0000192E0000192E000094
:10005000192E0000192E0000192E0000192E000084
:10006000192E0000192E0000192E0000192E000074
:10007000192E0000192E0000192E0000192E000064
:10008000192E0000192E0000192E0000192E000054
:10009000192E0000192E0000192E0000192E000044
:1000A000192E0000192E0000192E0000192E000034
:1000B000192E0000192E0000192E0000192E000024
:1000C000192E0000192E0000192E0000192E000014
:1000D000192E0000192E0000192E0000192E000004
:1000E000192E0000192E0000192E0000192E0000F4
:1000F000192E0000192E0000192E0000192E0000E4
:10010000192E0000192E0000192E0000192E0000D3
:10011000192E0000192E0000192E0000192E0000C3
:10012000192E0000192E0000192E0000192E0000B3
:10013000192E0000192E0000192E0000192E0000A3
:10014000192E000053B94AB9002908BF00281CBF66
:100150004FF0FF314FF0FF3000F00CB8ADF1080C5C
:100160006DE904CE00F008F8DDF804E0DDE90223D3
:1001700004B07047704700BF2DE9F04786468C46B3
:100180000846089E154674461946002B40F0C1806B
:100190008542B2FA82F245D94AB1C2F1200300FA8F
:1001A00002FC954094402EFA03F343EA0C0C4FEA0C
:1001B000154EA8B2230CBCFBFEF80EFB18CC08FBB6
:1001C00000F943EA0C43994528D9EB1808F1FF37A9
:1001D00004D2994502D9A8F102072B44A3EB0903E5
:1001E000A4B2B3FBFEFC0EFB1C330CFB00F044EA94
:1001F0000344A04214D92C190CF1FF3304D2A042BD
:1002000002D9ACF102032C44241A43EA07401EB180
:10021000D440002334607360BDE8F0874746DDE7D3
:100220006346F1E792BB431B01214FEA154EAFB283
:10023000200CB3FBFEFC0EFB1C330CFB07F840EA62
:100240000343984561D9EB180CF1FF3004D298456F
:1002500002D9ACF102002B44A3EB0803A4B2B3FB18
:10026000FEFC0EFB1C330CFB07F744EA0344A742D9
:100270004DD92C190CF1FF3304D2A74202D9ACF1AD
:1002800002032C44E41B43EA0040C0E7C2F1200310
:100290009540944020FA03F12EFA03F34FEA154EED
:1002A0009040AFB20343B1FBFEFC0EFB1C10190CD7
:1002B0000CFB07F841EA0041884522D969180CF186
:1002C000FF3004D2884502D9ACF102002944A1EBE9
:1002D00008019BB2B1FBFEFC0EFB1C110CFB07F7E7
:1002E00043EA01439F420ED9EB180CF1FF3104D2CF
:1002F0009F4202D9ACF102012B44DB1B41EA0041D1
:1003000093E76046E3E76146F7E76046A4E76346A4
:10031000B8E7834206D916B9002108467CE7C6E94A
:1003200000E0F9E7B3FA83F78FB9834201D372454E
:1003300008D8BEEB020460EB030301209C461EB903
:10034000002169E73846FAE7C6E9004CF8E7C7F14B
:10035000200CBB400EFA07F522FA0CF42EFA0CF131
:10036000BA401C4320FA0CF3B8404FEA1449014349
:100370001FFA84FEB3FBF9F809FB18300B0C08FBDD
:100380000EFA43EA00439A4540D9E31808F1FF30DA
:1003900004D29A4502D9A8F102002344A3EB0A0330
:1003A00089B2B3FBF9F809FB183308FB0EFE41EAEA
:1003B00003418E452CD9611808F1FF3304D28E45D4
:1003C00002D9A8F10203214443EA0040A1EB0E0147
:1003D000A0FB02984145CE46434602D306D14D4587
:1003E00004D20138B9EB020E68EB0403002EA7D04B
:1003F000B5EB0E0261EB030101FA0CFC22FA07F3E4
:10040000F9404CEA0303C6E9003199E74046C5E7E5
:100410004346D9E7F0B5344B344A4921C3F80026A6
:100420003348C3F8042685B0C3F80826C3F80C2661
:10043000C3F81026C3F81426C3F81826C3F81C26E0
:1004400007F00DF806F098F800F096FA054601A8B6
:1004500000F038FD0446284600F09EFA254B1B6844
:10046000A34205D04521244806F0F9FF06F086F99D
:10047000039A4921214806F0F2FF4921204806F05D
:10048000EEFF4FF48031002003F022FC044620B13F
:1004900045211C4806F0E3FFFEE769469DF8080089
:1004A00000F034F8009B039D1D44019B1E8903F05E
:1004B000F7FBAF1901F0D6F801F0A6F801F0C0F88B
:1004C00084F30B8884F30A88AB5983F3088884F398
:1004D0001488BFF36F8FBFF36F8F7B6898474521F8
:1004E000094806F0BCFFFEE7008001503546526E19
:1004F0005285000070C500206B8500008E850000CD
:10050000BD850000E285000015860000024608B5A2
:1005100038B105480023452106F0A1FF6FF0150012
:1005200008BD0860FCE700BF3886000021B1012942
:1005300006D06FF015007047044B53F83000704739
:10054000024B03EBC0035868704700BF888100006E
:100550002DE9F04FDFF844B2DDB01646DDE96889D9
:100560001C466A9FDBF8005001F018F80122874B07
:100570003CA8C3F8002504F01DFFB8F1000F07D018
:10058000B9F1000F04DD4A4641463CA806F068FB7D
:100590004FF0000833897289D6F80CA013449A44AE
:1005A000C2456AD80FA93CA804F076FF0022774B19
:1005B000C3F80025C3F8002527B1202238460FA92B
:1005C00007F01CF800233146009322464FF6FF73D4
:1005D00009A805F0D2FF064600285FD120460E9FED
:1005E00000F0B4F9874259D84FF0FF37DFF8B0A1D7
:1005F000DFF898810DF11E0307AA08A909A806F0E3
:100600000AF800284ADB40F0B980089909A806F0EA
:100610004EF850B94FF6FF71BDF81E005C4A32F833
:10062000023B8B423AD09842F9D1BDF81E90B9F105
:10063000100F3DD0B9F1220F7DD0B9F1010FD9D102
:10064000BDF81C30202B29D8204608993CAA06F07A
:1006500014FF074610BB9DF81C30202B039309D8CC
:10066000DAF800204B4B0492049A97423FDB0023B8
:10067000C8F800354FF0FF37BCE7679BAAEB0809C5
:10068000994528BF994641464B462046669A06F052
:10069000F4FE30B100223D4BC3F80025DBF80050DA
:1006A0006EE04A4666993CA806F0DAFAC84477E755
:1006B000BDF81C90B9F1200FF0D14B4620460899A7
:1006C0003CAA06F0DAFE0028E8D100F055F94A46C7
:1006D00006463CA90FA800F0E7F88146304600F036
:1006E0005BF92D4B1B684B45D8D1012682E705935A
:1006F00000F054FFC8F800951FA804F05BFE059BAE
:100700001FA85A6853F8081B1268059306F0A8FA48
:1007100017A91FA804F0C0FE0022C8F80025039AFC
:100720003CA917A806F05AFF059B10B9C8F80005A8
:1007300060E7013798E77B1C3FF45CAFDAF80030E4
:10074000BB4297DDBDF81C30802BA7D82046089906
:100750003CAA06F092FE0028A0D100F00DF9FFB2ED
:1007600081462021BDF81C303CAA00970FA800F05C
:1007700019F80546484600F00FF97BE7002E8DD0AA
:1007800000F002F928465DB0BDE8F08F000084500B
:10079000248500009481000070C500206CC50020F5
:1007A000908100002DE9F04796B016461D469DF851
:1007B0007820384B074653F8321003EBC2035B68CE
:1007C00001911868DFF8DC800144302302AA01A8F7
:1007D000D8F8009006F0D2F9002851D1DDE90143A4
:1007E0001C44214606AB03AA01A806F0EFF9002835
:1007F00046D1049A072A43D12749059806F0EEFE10
:1008000000283DD1079A082A3AD12449089806F0D1
:10081000E5FEA8BB214602AA01A806F0C3F978BBF1
:10082000DDE901A30AEB0302944229D1412B27D130
:1008300035443023294603AA02A8029606F09EF901
:10084000E0B9DDE9023213449D4217D32A4602A9DA
:1008500006A805F03AFF88B92A4602A90EA805F0B5
:1008600034FF58B99AF80030042B07D120233846BA
:1008700006AA0AF1010100F0A9FE38B1D8F80090EB
:1008800000F082F8484616B0BDE8F087044BD3F874
:100890000090F5E794810000678600005E86000006
:1008A00070C500206CC5002070B5094B04461D685A
:1008B0000023934205D1074B1D6800F065F82846D8
:1008C00070BDE65CC85C8642F7D10133F1E700BF3A
:1008D0006CC5002070C50020094A40000B7852F812
:1008E00020108B4209D0013052F82000834214BFFF
:1008F0004FF0FF304FF4347070474FF4347070474E
:100900009C8100001FB50F4B0C4613F8300001F01E
:10091000BFFF50B92068102381686A46103906F07D
:10092000ACFD28B1206806F0A7FD4FF0FF3006E0CF
:1009300010226846044906F051FE0028F2D104B0A6
:1009400010BD00BF9C8100004285000013B5044625
:1009500005F0ECFE6A460146204605F0F4FD30B194
:100960000448452106F07BFD002002B010BD009830
:10097000FBE700BF6F860000024B1868421C1A603C
:10098000704700BF20C70020024A1368013B136074
:10099000704700BF20C70020034B1B68834201D073
:1009A00005F0ECBE704700BF20C700202DE9F043E2
:1009B000434F89B0064600200D463C68FFF7B6FD60
:1009C00006A9C0B201F064FF28B1FFF7DDFF2046A1
:1009D00009B0BDE8F0832946FFF7A8FD2C2407A93C
:1009E000C0B204FB056401F053FF90B12C236B43AC
:1009F000F2181169DDF818C0C8061AD51DB13046C5
:100A0000069905F0B0FF2F4B1C68069806F034FDE0
:100A1000DBE7079806F07CFD8046079806F02CFD82
:100A2000631EE21C13F8011F4145DFD19342F9D147
:100A3000E4E7F058244B98423ED1D06813891B1844
:100A40003AD25289D21837D2DCF808309A4233D2DF
:100A500040F60C6311EA03062ED1FFF78DFFDDF897
:100A600018900746FFF788FF4FF480730193174BE8
:100A7000224680463146009330464B46CDE9036618
:100A80000296FFF765FD04464046FFF785FFFFF736
:100A90007BFF3846FFF780FF0D4B1B68A342B4D0A5
:100AA00065B106980021826806F011FD094A4521CA
:100AB000094806F0D4FCA6E73C68EDE7074AF6E7EC
:100AC0006CC5002068C500203DB8F396CC3D0120E0
:100AD00070C50020B2860000BC860000AA86000017
:100AE0007FB50D46002104462846CDE9021105F0E8
:100AF000D9FE28B32368194EB34203D1204603AA76
:100B000005F065FEE36AB34204D10121204602AA42
:100B100005F05DFEDDE90232934288BF0393039B3B
:100B2000AB60039A2946204600F09AFB0C4B1A68EA
:100B3000002A03DD57210B4806F091FC04B070BD7C
:100B400001A9FFF7DFFE019805F1080105F0F9FDA5
:100B5000AB680198039306F08FFCE2E73DB8F3968B
:100B600084DA0020E48600002DE9F84F884691469B
:100B70009A460026DFF870B0194C1A4D0B9B9E4226
:100B800001D300200FE00B9B40469F1BB7F5806F01
:100B900028BF4FF48067144A3B4606EB0A0106F073
:100BA0006CFC10B10120BDE8F88F0A993B465A460B
:100BB0004846711806F076FC0028F3D1C4F80056B8
:100BC0003E44C4F80456C4F80856C4F80C56C4F899
:100BD0001056C4F81456C4F81856C4F81C56CDE77D
:100BE000008001503546526E24C700202DE9F041A7
:100BF0000E460021A94B0446436203F5F06388B01A
:100C000003650846FFF792FC04F120010546C0B2D7
:100C100001F03EFE48B100232A4645210190009391
:100C20009F4806F01CFC05F0A9FD01210020FFF7FC
:100C30007DFC04F14C010546C0B201F029FE50B123
:100C400001232A464521019000939548002306F090
:100C500006FC05F093FD204605F0FAFD054668B94F
:100C600000222046114605F09CFD074600B30022F5
:100C700057218C4806F0F3FB01239DE0F022572119
:100C8000894806F0ECFB01239D4284F85830E7D1F7
:100C900094F85830042B8DF8173000F29080012B17
:100CA00000F2948000F0A680FF2384F85830A1E081
:100CB000204605F015FF0028DED004A805F0E9FD68
:100CC0000146204605F0A4FE054618B13A465721D4
:100CD0007648CFE79DF817309DF8152000930499CA
:100CE0009DF81430724802F0BBF804A805F0DAFD54
:100CF000074660BB204604A9FFF7F2FE9DF81730B7
:100D000084F85830033B012B06D8384600F00AF926
:100D100010B1FF2384F858309DF81730023B022BA6
:100D20000BD8002000F0E8F838B1FF2384F85830E1
:100D30004521604806F093FBFEE794F85830FF2BFE
:100D4000F6D00021204604AA05F02BFD94E79DF87B
:100D50001770012F1ED1284603F04EF8831E022B78
:100D6000054614D8FFF708FE394680462046FFF7AF
:100D70001DFE07464046FFF70FFE4F4B1B689F4284
:100D800005D04E4B1D68AF4214BF0525012584F8E0
:100D900058507DE7FFF7F0FD012107462046FFF799
:100DA00005FE05463846FFF7F7FD434B1B689D429D
:100DB00014BF05239DF8173084F8583068E7052BD9
:100DC0007FF472AF002000F0ADF810E0204604A9D7
:100DD000FFF786FE94F85830023B022B0AD8002019
:100DE00000F0A0F800287FF45FAF00F085F800283D
:100DF0007FF45AAF94F85830FF2B05D145212D4888
:100E000006F02DFB05F0BAFC002294F858302C4F68
:100E1000012B039217D01146204605F0C2FC90B179
:100E20003D68102200210DEB020006F0F2FBE06CA1
:100E300006F022FB206A06F01FFBFFF7A5FD2846FF
:100E400008B0BDE8F081FFF797FD002180462046FD
:100E5000FFF7ACFD05464046FFF79EFDDFF85880E2
:100E6000D8F800309D42DBD13B689D42D8D0134B6F
:100E70001B689D42D4D0039B01330393039B012B3A
:100E800001D005F07BFC206A05F05BFB3071236A22
:100E90005B683460D8F80050B360C2E724CB002010
:100EA00013870000A287000060870000CE87000043
:100EB000F88700003788000070C5002068C5002052
:100EC0006CC5002070B50B4E0446602200213046F0
:100ED00006F09FFBFFF750FD214605463046FFF721
:100EE00085FE04462846FFF757FDFFF74DFD2046D7
:100EF00070BD00BF24DA002013B5094B01A913F817
:100F0000300001F0C5FC48B9019806F044FE0446E3
:100F1000019806F0B1FA204602B010BD0124FAE7AC
:100F2000A48100001FB50F4B01A913F8300001F098
:100F3000AFFCA8B9019802A902F008FF044668B9FD
:100F40009DF80B30032B03D1019806F0F2FD044607
:100F5000019806F091FA204604B010BD0124F7E78D
:100F60000124F8E7A48100002DE9F34106460C4670
:100F700017461D460BB9002628E0184605F092FCDE
:100F80000028F8D16946FFF7BDFC009838B9012464
:100F9000009806F071FA204602B0BDE8F08101A980
:100FA00005F0CFFB0028F2D1009806F065FA304634
:100FB000019905F077FD736A5E686B79012B21D189
:100FC000002CD8D12B68834298BF002621460020F0
:100FD000FFF7ACFA6946C0B201F05AFC0028D6D13E
:100FE00020233A463146009806F047FA0446002886
:100FF000CDD1002DCCD03C680D4BE41A18BF4FF07A
:10100000FF34C5E7022BB6D12B68012B05D98342EB
:10101000B1D8B4FA84F46409ADE7ACD1002CD5D0D2
:10102000012CA8D12C79023C18BF0124A3E700BFF2
:101030003DB8F3962DE9F04F07460C4685B00146C2
:1010400000201646FFF748FC051E50DB3846E46DCD
:1010500005F06CFB5FFA84F94FF0000A4FF0010BCA
:101060004FF0FF346B1E09FB03089DB9BAF1010F65
:1010700003DD4521204806F0F2F9631C06D0EF2C71
:101080002ADC40F2011301343460B380284605B0F5
:10109000BDE8F08F6B1E00934146012338460DF1E9
:1010A0000F0206F0EAF9031E019322DB0122384603
:1010B0000DF10F0106F0D8FC019B40B15B4501D05A
:1010C0000AF1010A9B46009DA8EB0908CDE7B4F19F
:1010D000FF3F08BF2C46F5E70223F03C7371631015
:1010E00004F001040133013433603471CEE7072585
:1010F000CCE70125CAE700BF4388000000B589B0EE
:10110000032004A906F022FD9DF81020012A41D0F9
:10111000254B2649032A08BF0B469DF81320492179
:1011200002929DF81220224801929DF8112000920F
:10113000204A06F094F9092006A906F007FD9DF85B
:101140001820012A28D0184B1849032A08BF0B463B
:101150009DF81B20492102929DF81A201448019203
:101160009DF819200092144A06F079F99DF8103084
:10117000012B13D19DF81230032B0FD19DF818309D
:10118000012B0BD00D48492106F069F9022009B066
:101190005DF804FB0A4BC0E7094BD9E70948492130
:1011A00006F05DF90020F2E7668800006F88000015
:1011B0008388000075880000C4880000D48800007F
:1011C0006A880000F388000070B54B6814461E4A18
:1011D00003F0FF23934206460D4686B02FD10B68DD
:1011E000012B2CD1204604A902F0B0FD9DF810205F
:1011F000012A26D0154B1649032A08BF0B469DF835
:101200001320492102929DF81220124801929DF864
:1012100011200092104A06F022F99DF81030032B9D
:101220000DD12146304605F09EFB204606F081FC9C
:101230002046A96805F093FA204602F067FD06B043
:1012400070BD064BDBE700BF0001000466880000AC
:101250006F88000083880000C48800006A8800004E
:101260002DE9F04F16460546ADF54B7D0C46B448CA
:10127000492106F0F4F83146284605F013FC6B6A64
:1012800081465E6805F001FC334600904A46AD4851
:10129000492106F0E4F8204605F004FBF0B1E86DC2
:1012A00005F03FFA0023AF6A013F3344984201D969
:1012B000013FFAE7B94511D35721A34806F0CFF80B
:1012C00007FB06F3572109FB0662A04806F0C7F8A2
:1012D0000123E3710DF54B7DBDE8F08F002707A9D1
:1012E000032001F0D5FA08A9092001F0D1FA1C2247
:1012F00039460AA8DFF888B2099706F08AF9944BB4
:10130000944A09A907981A6005F00DFB5946924ABC
:1013100009A800F0FDFB011E08DA904801F0A0FDCD
:1013200008983946826806F0D2F8D3E7DBF8001057
:101330008B4AB1F5005F34BF0123C1F3473313700B
:10134000884A894812680092834A127801F088FD21
:101350002146089A2846FFF737FF05F096FB4921FA
:101360000246824806F07BF86379012B51D14F4643
:10137000DFF810A247E02168C1F101034B44BB42F2
:1013800040D3774A6B6A127818683A44013A53F8A6
:10139000322003EBC70353F8083C121A1B1A012929
:1013A000DDF81C800392059311D1089B0493E36838
:1013B000022B08D04146284605F0D5FA2246414680
:1013C000284605F006FB2846049905F0CCFA32467B
:1013D0000399404605F0A5FA039B42464146009317
:1013E0002846059B0196FFF7BFFB2146284605F0DE
:1013F00066FA23680133236020B1DAF80030013344
:10140000CAF80030013F002FB5D101232360032328
:101410006371514F4FF43972002111A806F0F9F8A9
:101420003B780A2B07D1524911A800F0F5FA0028A1
:1014300024DD02233B7005F028FB492102464D487C
:1014400006F00DF83B78022B10D111A800F05CFEDD
:10145000002813DB464ADBF8001011A800F0E6FD77
:1014600000280BDB424911A800F03CFB05F00DFB06
:1014700049210246404805F0F2FF01E00423637170
:101480006379042B10D1DFF8D8A03C489AF80010FB
:1014900001F0E6FC0127DFF8ECB0B945DDF81C806F
:1014A00009D2012323606371079805F0E5FF0898CE
:1014B00005F0E2FF0EE721688F423ED39AF8002044
:1014C0006B6A3A44013A186853F8322003EBC703B9
:1014D00053F8083C121A1B1A01290592039311D1E3
:1014E000089B0493E368022B08D04146284605F088
:1014F0003AFA22464146284605F06BFA28460499F6
:1015000005F031FA32460399404605F00AFA039B8A
:101510004246414600932846059B0196FFF724FB6F
:101520002146284605F0CBF923680133236020B11A
:10153000DBF800300133CBF800300137ADE700BFF6
:101540000A890000338900006A8900009989000037
:10155000043D0120407F0000CD3E0120CA890000EB
:1015600068C60020FC3C0120068A0000518A000069
:10157000943A01207E8A0000A38A0000C88A0000F5
:10158000003D012084DA00200A4619B1024B0021F7
:101590001B681847704700BF74C5002070B5094D1F
:1015A0002B780BB1002070BD0126074CC4F80065F4
:1015B00003F0A2FF18B92E70C4F80005F2E74FF04F
:1015C000FF30F0E7CC3E0120000084502DE9F041CF
:1015D000ACB01F4606460C461546FFF7DFFF012359
:1015E000DFF820802A46C8F80035214633460097A8
:1015F00003A806F025FC0023C8F800352CB0BDE890
:10160000F08100BF00008450BFF36F8F72B60023DB
:101610004FF0FF30094A03F120010133102B42F84B
:101620002100F8D100234FF0FF30044A03F160019C
:101630000133102B42F82100F8D1704700E100E09F
:10164000002318460649D1F89020C2F3072293429E
:1016500000DB7047C1F89830C1F8A0000133F6E70D
:1016600000ED00E02DE9F8434FF0FF3501274FF082
:101670000008204BDFF884905F60C3F84853C3F83C
:10168000085303F580535F60C3F84853C3F8085309
:1016900059F8044B002644F30730C4F8085301F00E
:1016A00021FB80226760C4F84C61D4F84C31C4F847
:1016B0001061D4F81031C4F844613146D4F8443193
:1016C000A018C4F8006505F0A4FF8022314604F597
:1016D000C07005F09EFFB8F1000F08D0064BC3F8AC
:1016E00008554FF05023C3F80853BDE8F8834FF076
:1016F0000108CDE70040015000700150B0810000AA
:101700002DE9F34100F5177704460DF1060138463F
:1017100005F0C1FA00284BD19DF8063003F00F0206
:1017200013F0700FA2613DD138460DF1070105F0AD
:10173000B2FA054600283BD14FF006089DF8076035
:1017400006F03F069DF90730002B18DB4FF6FF73BC
:1017500027630027A4F84430676304F1460005F0CE
:101760005FFCBE4214BF01230723144AC4E9087674
:10177000C4F85422124A2375C4F8582214E038469B
:101780000DF1070105F087FA90B9B8F11B0F12D0DF
:101790009DF8073003F07F0303FA08F31E4308F1B6
:1017A0000708CFE76FF00205284602B0BDE8F081D8
:1017B0006FF01105F8E76FF01805F5E7596D0000B7
:1017C000B16C0000002370B50546C0E99833284687
:1017D00005F06BFB0028FAD0286900F085FA044672
:1017E00040B9D5F854326E6A33B9344621460648BA
:1017F00001F036FB204670BD05F1300098470446E5
:101800000028F3D1F1E700BF828B00002DE9F047FB
:10181000ADF5007D0646894617461D46DDF820A237
:1018200023B1C369D0F860229B1AC3610024AF4280
:1018300004D86CB33046FFF7C5FF2DE0002CF9D17A
:10184000A7EB0508B8F5007F28BF4FF4007869467C
:1018500042465046C847C0B942466946304605F040
:1018600089FB41460446504605F004FD0D4B4544B6
:101870001B78022BDBD164236B433A46B3FBF7F3AF
:101880002946094801F0ECFAD1E76FF00904D1E7E5
:101890003046FFF797FF044620460DF5007DBDE872
:1018A000F08700BFCD3E01209F8B00000346F0B5BE
:1018B00060B342B3174D286840BBD3F8C872D3F861
:1018C000D8128F4213DA144C04F5C046318844F81C
:1018D000217001F50057013189B2B1F5805F24F81C
:1018E0001720318003D96FF01E002860F0BDD3F8B7
:1018F000C8120A44C3F8C822D3F8CC329A42A8BF0F
:101900006FF01D00F2E76FF02100EFE76FF02000AD
:10191000ECE700BF88DA002090DA002008B5134613
:1019200060B172B10A46D0F8C0120748006805F0ED
:1019300060FC002818BF6FF01C0008BD6FF020008D
:10194000FBE76FF02100F8E7043D01202DE9F743A4
:101950000F4615460446002855D0002A50D0DFF81F
:10196000B080D8F80060002E4DD1D0F8C812D4F85D
:10197000D832DFF8A0909942D9F8000039DA06236E
:101980006A46D4F8DC1205F034FC88B9D4F8DC12CD
:10199000BDF800300631AB42C4F8DC1205D1DDF8E9
:1019A0000220D4F8C8329A420CD0184801F058FAF4
:1019B0006FF01D03C8F800306FF01D06304603B00D
:1019C000BDE8F0832B463A46D9F8000005F011FC3B
:1019D0000028EDD1D4F8DC322B44C4F8DC32D4F842
:1019E000C8321D44D4F8CC32C4F8C8529D42E5DB5D
:1019F000E2E713463A4605F0FCFB0028EFD0DBE7B0
:101A00006FF02106DAE76FF02006D7E7DC8B0000E5
:101A10008CDA0020043D0120F0B5294D0F46044624
:101A20002B6887B0002848D0264A4FF42F2112781F
:101A3000002610321203C0F8C82202F51F22C0F897
:101A4000CC224FF48032C0E9B421C0F8D8224FF440
:101A50007F221D49C0E9B766C0E9B0121B490E805C
:101A60001B4A384600921B491B4A019405F072FA42
:101A700086191FD1D4F8DC324FF400710493D4F8E6
:101A8000C43216480393D4F8C03202934FF4A02313
:101A90000193D4F8D0320093D4F8C8224FF4202315
:101AA00001F0DEF90094334638462A680C49FFF706
:101AB000ADFE0646304607B0F0BD6FF02306CFE717
:101AC000003D012068C6002028020B00903A01204A
:101AD0001D720000AD18000053720000F78B00006B
:101AE0001D19000007B50246D2F8C0320092064A1E
:101AF000A3F53023084612680449A3F50A73FFF7DB
:101B000085FE03B05DF804FB003D01201D190000B7
:101B10002DE9F041DFF8B4808CB007460E4615463B
:101B200028232549D8F8000002AA05F062FB0446E4
:101B3000B0B9029B214A934231D12022394604A8F0
:101B400005F04CFD28BB0A232B700E2301930423C0
:101B50001949D8F800000DEB030205F051FB28B13C
:101B60006FF0240420460CB0BDE8F081144801F069
:101B700077F9039B336003F5312203F5302303F536
:101B80000A73C3F30B0302F50A72D21A0D4B1A60E3
:101B9000E8E70D4805F07DFB6FF02504E2E70E2B2A
:101BA00002D10A232B70E4E70A2B01D10223F9E7C3
:101BB000022B08BF2870DCE700020B004E4557508F
:101BC000898C0000FC3C0120C08C0000043D0120F9
:101BD0004FF0A53330B5ADF50B5D8BB00DF500546E
:101BE0000434D0F8E052036001464FF439722046C5
:101BF00005F004FD4FF40052264901A805F0FEFC53
:101C000001AB03F50850EAB223493D3005F0F6FC7C
:101C10002249234D0B7D04F12C0084F83C32CB6922
:101C20004FF4047263600B6A4431A36051F81C3CAA
:101C3000E36051F8183C2361D1F82032A361D1F858
:101C40001C32636111F8043C84F8283051F8083CD8
:101C5000636251F8103CE36151F80C3C2362114C73
:101C600005F0CCFC4FF440522968206805F0CFFA0B
:101C700042F2E4232968206801AA05F0C1FA20B1E4
:101C8000094805F006FB6FF01E000DF50B5D0BB06B
:101C900030BD00BFCE3E0120CE5E0120943A01202F
:101CA000FC3C0120043D0120F38C00004FF0A533E3
:101CB00070B504460D460A4E03604FF480523068FA
:101CC00005F0A5FA4FF4397322462946306805F02D
:101CD00097FA20B1034805F0DCFA6FF01E0070BDE2
:101CE000043D0120058D00002DE9F04F0446A7B00A
:101CF000002800F0D080D0F8DC32002B40F0A38028
:101D00000A221D46DFF8C0916448B9F8001003921A
:101D10009AB2914263D8DFF8B4812A46604805F050
:101D2000B8FAD8F8003003F580432B44B3F57F2F81
:101D30005BD801262D0B6F1C5A4DD4F8C4124FF4FA
:101D40008052A1EB063101362868B6B205F05FFA81
:101D5000B742F2D2731ED4F8C4620027A6EB033652
:101D6000B246DFF86CB1B9F80020BBB29A4242D853
:101D70004D4B4FF42F221B78D8F8001010331B0363
:101D8000C4F8C83203F51F23C4F8CC324FF48033B3
:101D9000C4E9B432C4F8D8324FF47F23434A01F582
:101DA0004051C4E9B02300232046C4F8E032A9F82A
:101DB0000030C4F8DC62FFF779FF4FF44052D8F8E6
:101DC0000010286805F023FA042303AA384928687C
:101DD00005F016FA002818BF6FF0240023E030F851
:101DE000022F01330632154492E7324805F051FACA
:101DF0006FF01E0017E0BAB202F500533BF8133043
:101E00002868991D01915BF822100DF11602ADF8BA
:101E10001030CDF8121005F0ECF938B1264805F075
:101E200038FA6FF01D0027B0BDE8F08F5146019BD6
:101E3000286804AA05F0E4F9013708B11F48D5E77E
:101E4000019B9A448FE70223164DD0F8D0124FF42D
:101E500000522868049305F0DAF9C8B9D4F8D01212
:101E6000D4F8E032164A286805F0CAF9014618B1DC
:101E7000144805F00EFABBE7D4F8E022D4F8D032CB
:101E8000C4F8E0021344C4F8D03204AA04239DE746
:101E90006FF02200C7E76FF02000C4E78E1A012020
:101EA000178D0000043D012068C6002028020B00A9
:101EB00000020B003C8D0000658D0000758D000058
:101EC000CE3E0120868D0000903A0120FC3C01208E
:101ED00090DA002038B5244D0446D0F8D0124FF4E3
:101EE0000052286805F093F9C0BBD4F8D0122868D6
:101EF00001F50053C4F8D8321C4A4FF4005305F0E2
:101F00007FF9054630B11A4805F0C3F96FF01E0598
:101F1000284638BDD4F8D032D4F8D42203F5005383
:101F20009342C4F8D0321CDAD4F8E0221149A2F569
:101F30000052C4F8E022A1F5005005F05FFBD4F890
:101F4000E0220C4904F23D2005F058FB0A4B2046E4
:101F5000196801F54051FFF7A9FED9E76FF0220596
:101F6000D6E76FF01B05D3E7043D0120CE3E0120EC
:101F70009D8D0000CE5E0120FC3C012038B5154649
:101F80000446002848D0B2F5805F05D9244800F007
:101F900067FF6FF01E0038BDD0F8E03221481844CA
:101FA00005F02CFBD4F8E0321D44B5F5005FC4F811
:101FB000E05201D20020EEE72046FFF709FE1A4961
:101FC0004FF404720B7D04F12C0084F83C32CB6991
:101FD0004431636051F8243CA36051F81C3CE36039
:101FE00051F8183C2361D1F82032A361D1F81C329A
:101FF000636111F8043C84F8283051F8083C6362AE
:1020000051F8103CE36151F80C3C236205F0F6FAFC
:102010002046FFF75FFFCDE76FF02000BBE700BF72
:10202000AF8D0000CE3E0120943A012070B51446D9
:1020300005462F4AADF5027D0B46019000922046E1
:102040002C4A2D4904F086FFD5F8C0222B4B0646BA
:102050009A4245DD2A4802AE4FF4007332462949C0
:10206000006805F0C6F800283ED14FF40073C4F8AC
:102070005C62C4E998302046256904F069FF95F850
:102080003C32064623756B684FF40472E361AB681B
:1020900005F12C012362EB6804F14400A3622B6973
:1020A000E362EB6963636B6AE3632B6AA36395F88E
:1020B000283084F8403005F0A1FA6B69C4F860322A
:1020C000AB69C4F86432D5F8E032B3F5005F03D3EE
:1020D0002846FFF7FFFE0646002E01DA0823237587
:1020E00030460DF5027D70BD6FF01C06F8E700BFAD
:1020F0007D1F0000537200004D19000027020B00E5
:10210000043D012028020B0070B5374EADF50B5D84
:10211000364D8AB0044642F2E4233168286801AAA9
:1021200005F067F848B1324805F0B3F86FF01E05C6
:1021300028460DF50B5D0AB070BD316828684FF474
:102140003973224601F5405105F053F80546002841
:10215000E9D1D4F8C032013318D0BAAB03F5E85353
:10216000D3F8E412D4F8C8221C33914205D1D3F835
:10217000DC22D4F8DC329A422ED0BAAB03F5E85315
:10218000D3F8EC22D4F8D0329A4225D1BAAB03F579
:10219000E8514FF439721C31204605F02FFA4FF404
:1021A000005201A9134805F029FA80220DF50951C2
:1021B0001148013105F022FA6369002BB8D0A269F9
:1021C0009342B5D8D4F8C03203F50073C4F8C032D6
:1021D0000023C4E90533ABE7D4F8E022802AEBD82A
:1021E000044804F23D21E5E7FC3C0120043D0120C8
:1021F000BB8D0000CE3E0120CE5E0120014B1B684E
:10220000184700BF78C50020014B1860704700BF19
:1022100078C5002007B50B4600210246009103480F
:1022200000F006F803B05DF804FB00BFFD210000DC
:102230002DE9F04F82464FF000098DB01D46531E28
:1022400001910393039B58785C1C252819D1002029
:102250004FF0FF381E46444603460236029031785E
:102260000396392955D81F2914D8002900F0EF8189
:1022700001992520D04701993078D04709F102090A
:10228000E0E7002800F0E3810199D04709F1010956
:102290000394D7E7A1F12002192AE9D801A757F83A
:1022A00022F000BF0D230000712200007122000007
:1022B0000D230000712200008D2300007122000018
:1022C000712200007122000071220000D923000059
:1022D0000D23000071220000ED230000992300006F
:1022E00071220000A7230000C7230000C7230000BD
:1022F000C7230000C7230000C7230000C723000036
:10230000C7230000C7230000C7230000084601368A
:10231000A5E7582900F0EB80A1F16302D7B2172F8F
:10232000A6D8172AA4D801A757F822F095250000AF
:1023300013240000712200007122000071220000AD
:10234000F32300001324000071220000712200001A
:10235000F3230000712200007122000071220000AE
:10236000C9240000712200007122000069250000CC
:10237000712200001324000071220000712200006D
:10238000C924000071220000F323000025200199D8
:10239000D04709F1010955E7029A4FF0000802F011
:1023A000FE020292B3E7002C0DDAB8F1000F0DDA4D
:1023B000029A002A00F043810A2224EAE47402FB14
:1023C0000414303CA3E7B8F1000FF5DB0A2202FB4E
:1023D0000812A2F130089AE7B8F1000F55F8042B63
:1023E00080F22F81002A80F22E8154420222029232
:1023F0008DE7682903D1682B06D1482387E76C292C
:1024000002D16C2B00F02181002B7FF431AF0B4601
:102410007DE77A2B06D1752955F8046B14D14FF05E
:10242000000B0CE06C2BF6D04C2BF4D1073525F0CB
:102430000703752903F10805D3E9006B06D12028AD
:102440003BD1854F013C09E04FEAE67BBBF1000F31
:10245000F5DA7642814F6BEB4B0B013C0DF12D030E
:10246000059300230493304659460A220023FDF7C2
:1024700069FE059BB446303203F8012D5A46059398
:10248000049BBCF10A0F8B4672F1000203F1FF318D
:1024900006460491E7D2C3F1010B30330DEB03067E
:1024A000B8F1000FA6F104066DDA029BD9077DD4BE
:1024B000A8EB0B03A4EB0B0413E02B280ABF684F17
:1024C000684F04F1FF34C9E770290FD155F8042B88
:1024D0000023FAB96FF004034FF0050B614F624E11
:1024E000053C029A920770D4A04666E078216C2BD6
:1024F00003D1002355F8042B08E04C2BF9D1073504
:1025000025F007031D465B6855F8082B232825D1C5
:10251000880621D5554F023C002601F06001A1F14B
:10252000390B0DF12D0E02F00F01092988BF594416
:1025300030310EF8011D102A4FEA121141EA0371E1
:102540004FEA131C73F1000306F1FF3008D2C6F105
:10255000010B06F13003A1E7454FDCE7414FDBE714
:1025600006460A466346DEE755F8046B304605F03A
:102570002EF8B8F1000F834602DB4045A8BFC346E2
:102580004FF00008374FA8EB0B03002B92DDA4EBB4
:102590000804A6E755F8043B4FF0010B8DF81830FE
:1025A000304F4FF0FF33013C06AE9AE7A046EAE712
:1025B000029320200199D047029BB8F10108F7D57A
:1025C00024EAE472013C9144A41AB84606E004935C
:1025D00002920199D047029A049B9046424612F813
:1025E000010B0028F3D11A46013A15D5002BACBFD8
:1025F000C7EB03077F425B46013B15D5BBF1000FDC
:10260000A8BF5F4426464F44013E14D5002CA8BF06
:102610003F1907EB080915E604930292302001994F
:10262000D047049B029ADFE70293019916F8010B49
:10263000D047029BE0E701992020D047E4E7012240
:10264000D5E6904663E6144661E64C235FE64846CD
:102650000DB0BDE8F08F00BFCE8D0000CC8D000026
:10266000D08D000069890000D88D0000D28D000057
:10267000D58D00002DE9F047058B044628079046CC
:1026800011D4022905F0070540F0CC80204604F063
:102690000DFE78B10138218B042811D8DFE800F055
:1026A000C2106D85950001290CBF45F0100545F05D
:1026B0002005258388F31188BFF36F8FBDE8F0876D
:1026C00001F0070AAA4500F0A5800027B9463E465A
:1026D000A368002B00F0BC8041F00801218388F33F
:1026E0001188BFF36F8FA168002900F0BA800D68D0
:1026F000002900F0B680334652462046D1F80480C7
:10270000C047002D76D02B6829461D46F0E701F022
:1027100007035A1F012A1BD8002221F00701062BAC
:10272000276889B2C4E9002209D13B4603E0628BE5
:10273000013262831B68002BF9D141F0020120466F
:10274000218304F0B3FD00287AD041F0200176E027
:10275000042B0AD121F0070189B22046218304F01D
:10276000A5FD10B141F020012183218B01F0070A62
:10277000AA454FD00027B946AAE7236921F00701EF
:1027800041F00601062DD3F8009021832DD1B9F137
:10279000000F3FD041F00801218388F31188BFF377
:1027A0006F8F20463949C84729E021F00701236986
:1027B00041F0040189B2042DD3F804902183E6D0BE
:1027C00000274FF0040A3E4682E721F00701236903
:1027D00041F0050189B2052DD3F808902183D6D0A8
:1027E00000274FF0050A3E4672E700274FF0060A21
:1027F0003E466DE72B4687E7B9F1000FD1D1EFF3E5
:102800001188202383F31288BFF36F8F238B23F06B
:1028100008032383258BEA062ED525F01003238396
:1028200005F007056669218B002EBFF670AF002307
:102830002768C4E9003321F0070141F00101218339
:10284000218B4FF0000901F0070AAA457FF440AF41
:10285000002F9CD041F00801218388F31188BFF339
:102860006F8F002FC8D03D68394633465246204608
:1028700004F048FD2F46F4E7AB067FF51BAF25F0CB
:102880002003238305F0070500E700BF3173000034
:1028900070B5114B0D461C68DCB1104B1968002354
:1028A0008B4202DB6FF0010070BD224612F8106B04
:1028B000864202D014460133F2E7E06810B96FF0A7
:1028C0001200F1E705F072FA0028F8D000202C6021
:1028D000EAE76FF00C00E7E77CC50020B881000054
:1028E00070B588B005460C46C0B269461646FFF77B
:1028F000CFFF00281BDB0098C8B143682268029311
:1029000083680195CDE903360023CDE906230593BD
:10291000C56804F0B1FD6DB12846084901AA04F06C
:1029200083FF079808B9059B236008B070BD6FF05E
:102930001500FAE76FF01200F7E700BF1F750000FF
:1029400008B5054804F0A5FC044804F0A2FCBDE865
:102950000840034804F09DBCDE8D00000F8E00008F
:10296000428E0000014802F077BA00BF5C8200008E
:1029700030BFFFF7FDBF00BF154B9A6A12F0007F12
:102980009A6A14BF1E201D2012F0807F9A6A18BF19
:102990001F2012F4801F9A6A18BF022012F4002F21
:1029A0009A6A18BF212012F4802F9A6A18BF222039
:1029B00012F4003F9A6A18BF232012F4803F9A6AEB
:1029C00018BF24206FEA02426FEA12429A627047EF
:1029D00000ED00E010B5194B0246986A9C6A10F4AD
:1029E000805F14BF1720162014F4006F9C6A18BF74
:1029F0001820A40509D5986B986A000404D51AB16B
:102A00009A6A22F400429A6219200C4B9A6A12F4D4
:102A1000806F9A6A18BF1A20D2050CD49B6A13F4EF
:102A2000005F18BF1C20054A936A43F47F439362FA
:102A300000230B7010BD1B20F5E700BF00ED00E088
:102A400010B51C4B0246986A9C6A10F0100F14BF18
:102A50001120102014F0080F9C6A18BF1220A40740
:102A600009D5586B986A000604D51AB19A6A22F003
:102A700080029A6213200F4B9A6A12F0010F9A6A31
:102A800018BF142012F0200F9A6A18BF1520D40620
:102A900058BF9B6A074B9A6A920642BF5A6A22F451
:102AA00000525A629A6A42F0FF029A6200230B7047
:102AB00010BD00BF00ED00E070B5444B06465B68FA
:102AC00000258AB0C3F3080385F31188BFF36F8F25
:102AD00002F07F40B0F17F4F11D102F00C000828C6
:102AE0000DD010074CBF0E4601250022033B8DF888
:102AF0000720032B05D8DFE803F01E5C60592E4643
:102B0000F3E700249DF807309BB92022314602A844
:102B100004F074FD099B002D53D0C3F3080222B9C1
:102B20006FEA53236FEA43230993204602A904F076
:102B30001AFD0AB070BD254BDA6A9107E1D4DA6A52
:102B4000002ADEDBDA6A5200DBD55A69B16942F449
:102B500080725A61BFF34F8FBFF36F8F5A6931F89C
:102B6000021C22F480725A61BFF34F8FBFF36F8F44
:102B70004DF60272914209D09A6AD2B242B1012056
:102B80000DF10701FFF75CFF0446BBE73468B9E7C6
:102B90009A6A12F47F4F05D001200DF10701FFF76B
:102BA00019FFF1E79B6AB3F5803FAAD3FFF7E4FE74
:102BB000EAE700200DF10701E4E700200DF107012D
:102BC000EDE723F4FF7323F00103ADE700ED00E030
:102BD000064B5A6942F010025A615A6942F4806207
:102BE0005A615A6922F008025A61704700ED00E00C
:102BF000EFF30880EFF3098101B57246FFF75CFF40
:102C000001BD00BF002080F31488BFF36F8F002048
:102C100080F30A8880F30B8801F0ACF900200E499C
:102C20000860BFF34F8F0D4880F3088800F01AF852
:102C3000202080F311880A484FF40061401880F387
:102C40000988EFF314800221084380F31488BFF34E
:102C50006F8F00F07FF8000094ED00E058B701207E
:102C6000585F012072B6002383F313884FF0FF30C2
:102C70000C4A03F120010133102B42F82100F8D156
:102C800000234FF0FF30074A03F160010133102B9E
:102C900042F82100F8D162B6BFF34F8FBFF36F8FB8
:102CA000704700BF00E100E01EF0040F0CBFEFF31F
:102CB0000880EFF30980816911F8021C0229FFD016
:102CC00001B504F056FC01BD40B2002807DB01232A
:102CD0004109034A00F01F00834042F82130704749
:102CE00000E100E040B200280CDB01220649430964
:102CF00000F01F008240203341F82320BFF34F8FA4
:102D0000BFF36F8F704700BF00E100E0054B420941
:102D100053F82220012300F01F0003FA00F01040B6
:102D2000704700BF00E100E040B2002801F101015E
:102D3000ACBF00F16040064B4FEA4111C9B2ABBFD6
:102D400000F5614000F00F0080F80013195470473F
:102D500014ED00E0144A08B5144B22F07F029A608B
:102D6000BFF34F8FBFF36F8FD3F8882022F4700228
:102D7000C3F88820D3F8882042F4A002C3F8882042
:102D80004FF04042C3F83422BFF34F8FBFF36F8F31
:102D90000023E1EE103A01F0F5FE01F037FF00F0FC
:102DA0002FF801F0FBFE00BF0000000000ED00E086
:102DB000154606460C46002280B5E1EE102A82F345
:102DC0000B88094FA7F5A04888F30B8887F309887B
:102DD0004FF0000005498847204629461A46B0476B
:102DE00003488047FEE700BF58B7012093750000F5
:102DF000A17500001022014B1A61704700ED00E040
:102E0000002320210348C2180133412B82F800130C
:102E1000F9D1704700E100E008B5EFF30583064AF9
:102E2000103B02EBC30152F8330049688847BDE804
:102E3000084004F0A9BB00BF547F0000014B18609C
:102E4000704700BF80C500200239012902D8034B1A
:102E50001B6818474FF0FF30704700BF80C5002047
:102E60000FB41FB5002106AB53F8042B05480091A1
:102E700002210393FFF7DCF905B05DF804EB04B021
:102E8000704700BF2B7600000122024B0020C3F8E0
:102E9000402570470090035020B1034B800143F060
:102EA00001031847704700BF80810000084B70B5D0
:102EB000C31A0D4607499B10044659434022064851
:102EC00004F0BEFB2B4601462046BDE87040184783
:102ED0001C3D0120B76DDBB6F07E0000402373B5CA
:102EE0000B4C0093041B0B460D460A49A41061438A
:102EF0000646094A094804F0CEFB011E05DA3046B1
:102F00002B4602B0BDE87040184702B070BD00BF4C
:102F10001C3D0120B76DDBB605770000F07E000098
:102F200010B5EFF31184202383F31288BFF36F8F62
:102F3000074A136823F00201DB07116002D4012065
:102F400004F0B5FE84F31188BFF36F8F10BD00BF8E
:102F50006C3D012070B50022012104460520FFF7D9
:102F6000E3FE0F4801F036F90E4B984215D101F0FF
:102F700041F926690C49304604F0E8F900280BDBDA
:102F8000012535642469084904F11C0004F0DEF9C8
:102F9000002801DB0020E56470BD6FF00400FBE752
:102FA000753000000000AD0B648200000C22104B55
:102FB000014602FB0033002030B4D3E90E5298637F
:102FC000EFF31180202484F31288BFF36F8F1C6C01
:102FD00004F0C00444F002041C6480F31188BFF3C1
:102FE0006F8F1DB12B4630BC0248184730BC70476C
:102FF0001C3D0120F07E000010B4EFF3118220236D
:1030000083F31288BFF36F8F1848016841F0020400
:103010000460C80708D482F31188BFF36F8F0120C2
:103020005DF8044B01F0FAB84FF05021D1F80C04D0
:10303000D1F80C14C907EED5EFF3118083F3128891
:10304000BFF36F8F0A490B6C03F0C00343F0020318
:103050000B6480F31188BFF36F8F82F31188BFF385
:103060006F8F00205DF8044BFFF7A0BF6C3D01207F
:103070001C3D012010B1012804D07047034B1B6C8C
:103080005B0701D1FFF792BF704700BF1C3D0120D5
:103090002DE9F843012207463449D1E8EF3FC1E862
:1030A000E02F0028F9D133B9314932484B60CB6069
:1030B0008A6004F05EF97B1E012B2DD8012F07D109
:1030C0004FF05023D3F81C3403F00303022B23D01A
:1030D00004F0AEFE054608BB274B1B78F3B14FF05A
:1030E000502302220646C3F808234FF050244FF025
:1030F0000008DFF88890D4F81824D4F81834D203E4
:1031000015D503F00303022B01D0012F0FD135B3E6
:1031100086F31188BFF36F8FBDE8F883EFF3118654
:10312000202383F31288BFF36F8F0125DDE730463C
:1031300004F03EFAD4F81835DBB2012BDBD1D4F819
:103140000421002AD7D0C4F80481D4F80421022233
:10315000C4F818252022C9F88021A360CBE74FF0DE
:1031600050230222C3F80423D6E700BF183D0120F4
:10317000083D0120383D0120525F012000E100E0C0
:1031800008B5074804F012FE38B10648FFF756FEAE
:103190000448FFF739F8002008BD6FF01200FBE784
:1031A0002C7F0000A93100000A2838B50446074DDD
:1031B00004D1AB680D2128465B689847AB6803488B
:1031C0005B68E1B29847204638BD00BF2C7F000005
:1031D000024B0B6001231360704700BF703D01205C
:1031E00000487047B882000010B504F0D7FD034CCA
:1031F000206004F0D0FD6060002010BD703D012013
:103200002DE9F0410D461946284616461C4604F0A5
:1032100089FA78B314B90020BDE8F08115F00307EE
:103220000CD0C7F10407A74228BF274631462846DD
:103230003A4601F035FC3D443E44E41B002724F0AF
:103240000308B84507EB05000FD16FF00302A30890
:1032500002FB03421AB106EB080101F021FC074A08
:10326000D2F80034DB07FBD5D5E7F15901F008FCB3
:103270000437E6E76FF01500CEE700BF009003507B
:1032800038B545682B69B3B11035284601F0B6FA58
:10329000044680B90146284601F07EFA084B984260
:1032A0000BD122462846074901F05EFA2246052145
:1032B0000D20FFF739FD002038BD6FF00400FBE75B
:1032C0000000AD0BC9320000430970B507D10B4BAC
:1032D000596821B101250C68094E854001B970BDBE
:1032E0008A682A4002D030464B6898471CB1236850
:1032F00021461C46F2E72346FAE700BF783D01204D
:10330000047F00002DE9F04340F206354668D00600
:1033100048BF0320337B02EA050558BFC2F34010C3
:1033200087B001F01F07B5F5837F144647EA4317BE
:103330008DF8030042D00FD8062D18D007D8B5B1AC
:10334000022D3DD06FF0150007B0BDE8F083B5F554
:10335000807FF7D101250AE040F20222954231D068
:10336000B5F5407F30D0B5F5007FEBD102250123C4
:10337000220303FA01F129D573689960326952BBBF
:1033800007F01F037F0973D13B4A84F4803102EBBD
:103390008302D2F80032C1F30041C4F3404423F465
:1033A000E16344EA410423F007031C4344EA800438
:1033B00044EA0524C2F800420020C5E70725D6E705
:1033C0000425D4E70525D2E70325D0E7630344BFEE
:1033D0007368D960D2E71036394630460DF10202E3
:1033E00001F0C8F914F4403F80460CD1394630460C
:1033F00004F0B7FC214B9845DED130469DF8021011
:1034000001F006FAD8E74FF0000901AB3946304623
:1034100003AACDE90439CDE90199CDF80C9001F06A
:103420007DF8164B98428DD114F4003315D09DF8D9
:10343000033084F48034C4F300448DF80E303946F0
:103440004B46304603AA8DF80C508DF80D4001F024
:1034500013F90A4B9842CDD074E7CDE904333946CD
:103460000DF10303304603AA039301F057F8F0E788
:10347000803352F82330FFDE002584500000AD0B6E
:10348000F0B5406801F01F04057B87B044EA45149D
:103490000569002D5FD0B2F5001F00F1100506D1BF
:1034A0002146284604F05FFC002007B0F0BD00274D
:1034B000B2F5800F01AE0197776037D1B3F1007F8D
:1034C00014BF052304238DF804300023CDE90463E1
:1034D0000393836823FA01F111F0010118D1B2F1CD
:1034E000A07F15D104F01F03620903F1800338D1D6
:1034F0001D4A52F82330DB070AD40DF10306324689
:103500002146284601F036F9184B984219D0029608
:103510002146284603AA01F001F8154B98421DD117
:1035200001222146284601F07FF9BDE7B3F1C06FC3
:1035300005D0B3F1007F14BF01230223C3E70323A7
:10354000C1E73146284601F069F9094B9842DED0BF
:103550006FF00B00A9E76FF08500A6E76FF015008C
:10356000A3E751F82330FFDE002584500400AD0BA3
:103570000000AD0B2DE9F04740F2FF16594FDFF880
:1035800068C1DFF868E100EB8101814202D10020CF
:10359000BDE8F087046814F4804FC4F3C325C4F376
:1035A000080340F08C80240EB34208BF4FF0FF3375
:1035B0007D5D192C00F28680DFE804F00D13191CE4
:1035C0001F251C8484848436608484848484848459
:1035D000848463787B7EC2F80C355C1C5BD104303C
:1035E000D3E7C2F814355C1CF9D000245CE0C2F8C3
:1035F0000835F2E7C2F81035F5E75C1CC2F808356B
:10360000EDD0002404E05C1CC2F80C35E7D00124A6
:103610005FEA531859D14FF00109DFF8CC8009FA5D
:1036200003FAC8F80CA008E0C2F80835002DDAD17A
:103630005C1CD4D000240625A146D0F800A00AF4D2
:103640000048B8F1000F1CBF4FF00009012403F03F
:103650001F085B093FD10CEB8808D8F80032CAF389
:10366000412A03EA0E0343EA8A0343EA052343EAB5
:10367000090343EA4403C8F80032B0E7C2F80C3546
:10368000D4E7C2F86035B3F1FF3F0468A7D0C4F3B4
:103690000044002CBBD05C091AD10124DFF848801B
:1036A00004FA03F9C8F80890A146C6E7C2F86435E1
:1036B000E9E7C2F86835E6E7C2F86C35E3E76FF092
:1036C000150065E76FF0850062E70023DB60FFDE31
:1036D00000239B60FBE7002308F1800853F82830A3
:1036E000F5E700BFAA8E000000258450F0F8FCFF2B
:1036F0002DE9F04104460D46476804F099FB4FF070
:10370000200868B9244B1B7853B16426606804F024
:1037100031F9D0B9012004F068FA013EF6D1F4E79E
:10372000EFF31186314688F31288BFF36F8F60681C
:1037300004F020F9A8B986F31188BFF36F8FEFE783
:1037400086F31188BFF36F8FDFE7EFF31186314601
:1037500088F31288BFF36F8F606804F00BF90028BC
:10376000EED0BB6900201D706368BA691B68C3F89E
:1037700044250122C3F84825C3F82001D3F820418D
:10378000C3F85801D3F858019A6081F31188BFF348
:103790006F8FBDE8F08100BF525F0120F7B505468D
:1037A000426813691168C1F82435137D507D927DFC
:1037B00003431343C1F86C356E68D6E9004313F038
:1037C000010348D02F6907F1080000F0FDFC304BE1
:1037D00098425AD1387A04F10C0204F5907104F041
:1037E00006FA387A012707FA00F000F0E7FC082310
:1037F000C4F80035B369C4F844350023C4F848352B
:10380000A760D4F85831002BFBD00021C4F8001574
:103810006B6801AADC68204604F07FF8002805DB0D
:10382000019B226819791868FFF7A4FE08216A68CD
:103830001368C3F80015117A51B9D269C3F8342559
:103840000122C3F83825C3F81011D3F810111A60FB
:10385000002003B0F0BD0822C4F80025B269C4F806
:103860004425C4F848350123A360D4F82031002B47
:10387000FBD00023C4F82031D4F820310123E360C9
:103880004FF48073C4F80433BBE76FF00400E0E743
:103890000000AD0B0123834070B5DC430B4AD2E836
:1038A000EF1F01EA0405C2E8E65F002EF7D14FF4EE
:1038B000803282400648C0F80823BFF35F8FBFF311
:1038C0006F8F0B4214BF0120002070BDA03D01206E
:1038D0000050015070B40E4922F07F46D1E9003407
:1038E000D01AC31844F10004C1E90034A6F500134E
:1038F000B3F5400F09D2074B1B681A0A1B069C1927
:10390000054B42F10005C3E9004570BC01F0DEB98A
:1039100088C60020A43D012090C60020D9B1012313
:103920000D4A8340D2E8EFCF4CEA030CC2E8E1CF66
:103930000029F7D14FF48033084A8340C2F804339A
:10394000074BD3E8AF3FC340DB0742BF4FF4001241
:10395000044BC3F800217047A03D012000500150E6
:103960009C3D012000E100E00D4B1868010A0006B3
:10397000BFF35F8F0B4BD3F80435181841F10001EA
:10398000B3F5801F0AD2084BD3E90023904271EBB4
:10399000030303D210F1807041F10001704700BFB2
:1039A000A43D01200050015090C600202DE9F04FA9
:1039B00085B016461F4604469DF840A0FFF76AFFF3
:1039C0000190FFF7D1FFB04271EB070352D23B4B9E
:1039D000301A67EB0101984271F100014DD2384B6A
:1039E00003EB0413D3E902239F4208BF964258D049
:1039F0004FF48038334908FA04F8204626F07F4B0C
:103A0000C1F8488304F005F84FF00309584604F163
:103A10005005AD00ADB205F1502504F5A87305F5CC
:103A200080350293029A20F07F4341F82230C1F89A
:103A30004483D1F80435244AC01A033820F07F406B
:103A400090422ED9286868B1D1F80435A3EB0B0059
:103A500020F07F40B0F5000F039322D9204603F0F9
:103A6000D8FF039BBAF1000F07D109EB030009F15E
:103A70000109D7E7BAF1000F09D06FF0150520460C
:103A80000199FFF74BFF284605B0BDE8F08F0123F1
:103A90000E4AA340D2E8EF0F1843C2E8E10F002915
:103AA000F8D107490E982301C8500F9B01EB04126F
:103AB0000025C2E902675360E1E700BF0100800012
:103AC00078C6002000500150FDFF7F009C3D012082
:103AD0007FB500254FF0FF304FF0FF31194C1A4BE6
:103AE0000226C4F80833C4F84833184BC4F8085504
:103AF000C3E902014FF480334FF40012C4F80433D9
:103B0000134B0121C4F804631520C3F880212A4611
:103B1000FFF70AF91520FFF7D7F801230D4AA36034
:103B2000236013600C4B0D4A009328460023CDE917
:103B30000155FFF73BFF3046FFF7AAFA284604B0CD
:103B400070BD00BF0050015003000F0078C6002078
:103B500000E100E0A03D0120D5380000FFFF7F001C
:103B60002DE9F7432E4BD3F8042390070BD5D3F858
:103B7000042142B10022C3F804212A4AD3F80431B7
:103B8000136801331360264AD2F80433D90326D5CB
:103B9000254BD3E8EF1F21F00100C3E8E40F002C10
:103BA000F7D1CB0702D4D2F84031C3B100251C4C69
:103BB000C4F84051D4F84031FFF7D6FEEFF311823C
:103BC000202383F31288BFF36F8F184BD3E902676A
:103BD000B042B94106D282F31188BFF36F8F03B0B0
:103BE000BDE8F0834FF0FF38D3E900104FF0FF3904
:103BF0001D60C3E902894FF48033C4F84833C4F828
:103C00004051D4F8403182F31188BFF36F8F0029FF
:103C1000E5D0009032463B4628468847DFE700BFA4
:103C200000500150A43D01209C3D012078C6002099
:103C300030B5431C124C85B005D08442A8BF044661
:103C4000012CB8BF0124FFF78FFE0E4B0C4DD3E9BA
:103C50000013401AB0F5000F0FD22218AA4228BF55
:103C60002A46002052180849CDE90100009143F18D
:103C70000003FFF79BFE05B030BD2A46F1E700BF09
:103C8000FFFF7F0088C60020D538000008B5FFF789
:103C90006BFE024B1B68C01A08BD00BF88C600201F
:103CA000012310B5074C15206360FFF71BF84FF494
:103CB0000012054BC4F80833C4F84833034BC3F86B
:103CC000802110BD0050015003000F0000E100E012
:103CD00040EA0103C3F30E0330B58BB940F215156A
:103CE000094CC90BC0F3C730994201D1002030BD47
:103CF000C218D2B202F5C07244F822500133F3E781
:103D00006FF01500F3E700BF0030005030B5816858
:103D100085B0103921F00704054603F0F9FB1022A5
:103D20000146684603F075FC10226846064903F018
:103D300065FC10236A462146284603F0B3FB003891
:103D400018BF012005B030BD4285000030B50D46DA
:103D5000816887B0102302AA1039044603F08DFB56
:103D6000002802DA012007B030BD1022204602A947
:103D700003F07AFE00283AD110221E4902A803F06F
:103D80002DFC00280CBF012302232B70204603F0DA
:103D900057FE012301460DF10702204603F06DFB9B
:103DA0000028DFDB9DF80730204603F00F021B09D7
:103DB0006A702B7101220DF1070103F055FE10B955
:103DC0006B78042B03D901236B7000232B71A2683D
:103DD0002046183A22F00702083AA91C03F057FEC1
:103DE0000028BFD12046E91C03F0AAFEBBE703234D
:103DF000CBE700BF42850000F0B5354F85B04600E7
:103E00000546694657F8260003F0A0FE044610B1A7
:103E1000FF2005B0F0BD013657F8260002A903F0D7
:103E200095FE012837D12A4649212A4803F017FB7D
:103E3000294B8DF80C40029300229DF800609DF8FC
:103E40000870264C3146207803F000FE50B3394606
:103E5000607803F0FBFD28B3A378042B03D09DF812
:103E6000031099421ED1E378042B03D09DF80B1068
:103E7000994217D12379042B10D16279022A1DD1DE
:103E8000174B18482A46492103F0E9FA6079831E46
:103E9000022BBED9BCE70028CED0B9E79DF80210AE
:103EA0009942EAD00132032A04F10604CAD10E482D
:103EB0002A46492103F0D3FA0120AAE7032A05D0B4
:103EC0000A4B0B49042A08BF0B46DAE7094BD8E72F
:103ED00090830000E98E0000030103037E8F000041
:103EE000CB8E0000348F0000588F0000D08E000071
:103EF000E28E0000C68E000008B5EFF31083012BA0
:103F00000C4A07D1126ABFF34F8F511C4A424A41F3
:103F1000104608BD03F047FE00B172B6126ABFF347
:103F20004F8F531C5A425A4103F03DFE0028EFD0F8
:103F300062B6EDE70080FF0008B5EFF31083012BB8
:103F40000B4A06D1D269BFF34F8F02F0010210462F
:103F500008BD03F028FE00B172B6D269BFF34F8FDF
:103F600002F0010203F01FFE0028F0D062B6EEE777
:103F70000080FF0010B503F016FE30B14FF0502363
:103F80000022C3F81421C3F8182103F01BFE28B146
:103F90000122644BC3F8382AC3F878254FF47F0216
:103FA000D2F83031D2F83421BFF34F8FC3F30B0373
:103FB000092B05D1012A1EBF01225A4BC3F87825CF
:103FC00003F000FE18B10E22574BC3F8E42E03F0A5
:103FD000EAFD30B10022534BC3F80C270122C3F88D
:103FE00010270022D30003F57F03D3F80013BFF39B
:103FF0004F8F013108D0D3F800130132D3F80433C6
:10400000B2F5807F0B60EDD1EFF31084FFF794FFE2
:1040100000284DD0BFF34F8F444BD3F80024012A22
:10402000FBD1C3F80425D3F80024012AFBD1012CCD
:1040300003D003F0B8FD00B172B6FFF77DFF58B1B1
:104040003B4AD36923F00103D361BFF34F8F374A53
:10405000D2F80034012BFBD1FFF74EFF68B1344A90
:10406000136A23F0FF0343F020031362BFF34F8F63
:104070002E4AD2F80034012BFBD1012C03D003F0DF
:1040800092FD00B162B60022284BC3F80425D3F894
:104090000024012AFBD1BFF34F8F2649264BCA6863
:1040A00002F4E0621343CB60BFF34F8F00BFFDE724
:1040B000FFF722FF0028ADD11E4AD2F88C3043F41E
:1040C0004063C2F88C304FF47F03D3F83021D3F82B
:1040D0003431BFF34F8FC2F30B02092A16D1013BD3
:1040E000022B02D8154AD35C83B1114814490368E6
:1040F0000E4A8B420CBF5A230023C2F8103EC36AFB
:104100008B420CBF5A230023C2F8003E094AD2F862
:10411000883043F47003C2F88830BFF34F8FBFF389
:104120006F8F10BD0040005000A00350009003505E
:104130000080FF0000ED00E00400FA05908F000011
:10414000FA50FA5030B50468ACB1B4FA84F30122E5
:10415000C3F11F03DBB29A4024EA0202D0E8EF5F0A
:10416000A54204D1C0E8EC2FBCF1000FF6D1EAD192
:1041700002480B7030BD0248FCE700BF0000AD0BE9
:104180000200AD0B10B50368CB40DB0710D4012350
:104190008B40026843EA0201D0E8EF4F944204D119
:1041A000C0E8EC1FBCF1000FF6D1F2D1014810BD00
:1041B0000148FCE70000AD0B0400AD0B014BC3F858
:1041C00004057047007001500146014800F0B0B886
:1041D00084C50020044B1A7922B9012218601A7193
:1041E0000248704702487047A83D01200000AD0B0F
:1041F0000C00AD0B08B5084B1B6833B10520FEF76A
:1042000085FD10B90520FEF75FFD4FF05023012218
:10421000C3F8182508BD00BFA83D012010B510B196
:10422000012847D010BD4FF05023D3F81814D3F80D
:104230001824C90322D502F00303022B05D0012B59
:1042400002D0002003F0DAFC01234FF050220220BC
:10425000C2F8183508224FF48273002103F150236D
:1042600019601C68012402F150221460164A126879
:1042700022B34FF05023C3F80403D3E7D3F8142438
:10428000D207E1D5D3F81C2402F00302013A012A37
:10429000D7D80D4A12681AB10222C3F80423C1E725
:1042A000D3F80421002AFBD00022C3F80421D3F85C
:1042B0000431B7E700224FF48073CEE71A68002A72
:1042C000FCD019601B68ADE7A83D01204FF05023DA
:1042D00010B5D3F8002152B10020C3F80001D3F883
:1042E00000210122C3F80823104B1B6898474FF0A8
:1042F0005023D3F8042182B10022C3F80421D3F85B
:104300000421D3F81824D3F81824022102F0030260
:10431000012A03D1C3F818159A6010BDC3F8081319
:10432000024B0120BDE810401B681847A83D012042
:104330000079024B03EB0010FFF704BF8CC500208F
:10434000036803F01F025B090260024818BF0020E7
:10435000704700BF0025845070B50D4C00F1080374
:1043600034F813300546DA050E4607D5C3F3432368
:1043700004EBC302526854F833309847A3682BB15A
:1043800031462846E268BDE87040184770BD00BF5E
:104390009CC50020024611F0010004D003490B6ABD
:1043A00013600B6203B90020704700BF00258450E2
:1043B00010B4134AC0B2083032F81030D9051CD5F9
:1043C000C3F3432123F4F85322F81030002002F104
:1043D0000E0434F8023F13F4807F03D0C3F3432369
:1043E00099420AD001302028F3D1002342F831301D
:1043F00004485DF8044BFFF7C5BE5DF8044B7047F9
:104400009CC50020F4C50020F0B50546002001261B
:10441000044607468C420BD1114BD3F87C2132B1B4
:104420000022C3F87C21D3F87C3140F00040F0BD7D
:10443000E3B29B0003F580729B0806FA03F31D426A
:104440000BD002F1A04202F55042D2F800C0BCF1FC
:10445000000F02D01760126818430134DAE700BF7A
:1044600000D00050CBB2024608460D49083331F85F
:104470001330990611D599070FD4012110685B0BF1
:104480009940C0F80813126802EB8303D3F8102593
:1044900022F00302C3F810257047002103F052BC3C
:1044A0009CC50020F7B5194ECDB2083536F8153049
:1044B0000746DB070C4626D5FFF7D4FF36F8153044
:1044C0009A0608D55A0B3B6803EB82030022C3F817
:1044D0001025C3F810252046FFF76AFF002301A826
:1044E00026F815300194FFF72BFF019B00EB8300AA
:1044F000D0F80022064B134043F00203C0F800320C
:10450000044803B0F0BD0448FBE700BF9CC5002091
:10451000F0F8FCFF0000AD0B0400AD0B2DE9FF41EE
:10452000136807460C461646FBB1DFF84481CDB24E
:10453000083538F8152002F02202222A22D0002263
:104540002046CDE900228DF80E208DF80F200DF1C8
:104550000E010DF10F0203F0ACFB38F8153023F01B
:10456000020343F0010328F8153073684BB31A783F
:104570005868DFF8FCC0E3B208333CF813108D072D
:1045800002D5B0B138481FE021F02001C904C90CA0
:104590002CF8131068B1032AF4D870683D6840689D
:1045A00090F800E005EB8E058AB9C5F81025C5F82E
:1045B00010253CF8131021F01C0141EA82022CF86E
:1045C0001320B3682BBB294804B0BDE8F081D5F8AF
:1045D000108541EA4E3128F00308C5F810853D6882
:1045E00041F0200105EB8E05D5F810052CF81310CD
:1045F00020F4473020F44070C5F810052002D5F8AB
:10460000107500F4F85040EA02403843C5F8100530
:10461000CFE72046D3E90067FFF7CAFE002ED2D0CD
:10462000134DD5E90023964203D19F4201D10022C8
:1046300009E010480DF10F01FFF784FD0B4B984284
:10464000C2D19DF80F20E4B205EBC20308345F60CD
:1046500035F8143045F8326043EA422343F480735E
:1046600025F81430AFE700BF0400AD0B0000AD0B20
:104670009CC50020F4C500202DE9FF4107460C46EB
:104680001E4612B3DFF8D480CDB2083538F81530A5
:10469000980701D4990621D413F01C0F02D0537847
:1046A000012B1BD001238DF80F3000232046CDE9CC
:1046B00000230DF10F01931C013203F0FAFA38F8D0
:1046C000153043F0030328F81530002E44D0234D55
:1046D000E1B2083135F81120930703D4204804B023
:1046E000BDE8F081002096F800E03B6822F020024F
:1046F000D20403EB8E03D20CC3F8100525F8112069
:10470000C3F8100596F801C04FEA8E08BCF1000FFF
:1047100022D03868B6784044D0F810354FEA0C4CB7
:1047200023F4981323F4F853C0F81035230203F44C
:10473000F8530CF4403C3605D0F8107543EA0C03EE
:1047400006F48016334342EA4E323B4342F02002E5
:10475000C0F8103525F811200248C0E79CC500209C
:104760000400AD0B0000AD0B014BC3E90212704712
:104770009CC50020054BC9B2083133F811309906A9
:1047800043BF5B0B02481370024870479CC5002072
:104790000000AD0B0400AD0B70B5154D064695F845
:1047A00060401CBB2146402205F1100002F031FFA1
:1047B000214630682E6D8E420ED10023C0F87C3128
:1047C000D0F87C3140F30730FEF77EFA0123094828
:1047D00085F86030AB6570BDCBB29B0003F580728D
:1047E0007C2B04BF845083580131E4E70248F2E790
:1047F0009CC500200000AD0B0C00AD0B034B93F8E3
:104800006000003818BF0120704700BF9CC5002021
:104810000148FFF7B7BC00BFF0C500200148FFF713
:1048200091BC00BFF0C5002073B503680C46D3F8F7
:1048300004130029A4BF4FF00041C3F804131E491C
:10484000E3B2083331F8133099061AD513F0020693
:1048500017D15B0B05689C0004F580716E50695898
:1048600001682144D1F8104544F00104C1F8104515
:104870002AB10122016802FA03F3C1F8043302B03D
:1048800070BDC3F38203042B11D0052B11D001A8F6
:104890000194FFF755FD019A0369D34003F001032A
:1048A000991C204602B0BDE8704003F04BBA0321CA
:1048B000F7E70221F5E700BF9CC500202DE9F3478B
:1048C000534B544FD3F80403396DC0B240F000404D
:1048D000FFF79AFD051E18DA00236846F96D00936C
:1048E0004FF00108FFF756FD97F85C30DA0757D410
:1048F000396D4FF00040FFF787FD6846F96DFFF70F
:1049000049FD0028F0D125F000450124002D66D195
:1049100002B0BDE8F08794FAA4F4B4FA84F4E00895
:1049200004F1080337F8139004F007021DF8003073
:1049300008FA02F223EA02030DF8003001A80194FC
:10494000FFF7FEFC019B4FEA9901803350F823608A
:10495000C9F3820A4B07D146C6F3014624D5204647
:104960005146FFF7F9FC01A80194FFF7E9FC019B10
:10497000F6B2803350F82330C3F301439E4207D18F
:104980000021204603F0DEF93146204603F0DAF933
:1049900001A80194FFF7D4FC019B08FA03F303621A
:1049A000009C002CB7D1A3E7022E0CD10321204696
:1049B00003F0C8F90AF00503012BE9D14946204666
:1049C000FFF7CAFCE4E70221204603F0BBF9BAF185
:1049D000030FF3D0032EDBD1BAF1020FEDE795FA06
:1049E000A5F3B3FA83F304FA03F29B0003F1A043A7
:1049F00003F55043D3F81005D3F81015C0F3042085
:104A0000C1F3014125EA0205FFF7A6FC7EE700BFDE
:104A100000D000509CC500200022034BC3F8842521
:104A2000C3F80425704700BF00900350044AD2F831
:104A30000834DB07FBD50160BFF35F8F704700BF11
:104A40000090035008B5C0F30B0383B90222094B51
:104A5000C3F88425C3F804254FF0FF320260D3F871
:104A60000024D207FBD5FFF7D7FF034808BD034852
:104A7000FCE700BF009003500000AD0B0A00AD0B37
:104A8000012208B5054BC3F88425C3F80425FFF7B8
:104A9000CDFFBDE80840FFF7BFBF00BF0090035047
:104AA0002DE9F843154601221D4B0446C3F8842521
:104AB000C3F8042510F003030E4610D0C3F1040719
:104AC000AF4228BF2F463A46A0EB030803F04DF94A
:104AD00001464046FFF7AAFFED1B3C443E443746E3
:104AE00025F00308B044A4EB0609B84511D115F030
:104AF00003020AD025F003052C447119204603F067
:104B000034F901462046FFF791FFBDE8F843FFF76F
:104B100083BF09EB070057F8041BFFF787FFE4E7A3
:104B20000090035038B5094B53F82040013053F83A
:104B30002050A54200D838BD636823B1204603F059
:104B40005AF90834F5E723689847FAE79883000094
:104B5000012208B5094B03201A70FFF7E3FFFDF7A8
:104B6000EFFE03F064F90420FFF7DCFFFBF752FCD3
:104B7000034A137B23F00103137308BD525F012026
:104B800098C6002008B50348034A0021121A03F012
:104B90004AF908BD78C60020545F012008B50020FE
:104BA000FFF7C0FF164B03F5006282F3088883F31A
:104BB0000A880025E023134C84F82230E577257617
:104BC0006576A57684F82050636A43F4E023636237
:104BD00084F82350FDF7FCFFFEF70CF94FF0FF338C
:104BE000A362E36203F0E1F80120FFF79BFF0220DC
:104BF000FFF798FF2B462A4629460348FEF7D8F8C8
:104C0000585F012000ED00E0514B000008B5064858
:104C1000064A0749121A03F008F9BDE80840054A98
:104C20000549064803F001B968C5002073C6002095
:104C3000948F000000000000948F000068C50020E1
:104C4000034B1B680BB9FFF721B80020704700BF6A
:104C5000B03D012030B570B10B4B5B6898420AD073
:104C6000036843B1D3E90421D0E90445121941EBAB
:104C70000501C3E90421D0E9003213605A60002322
:104C8000C0E9003330BD00BF00C6002010B50E4B98
:104C90001C689C4204D1FFF7D3FF6FF0004010BDA9
:104CA000FFF7CEFF002CF8D0D4E904321B1A62EBD8
:104CB000E072B3F1004F72F10001EEDA002AACBFEE
:104CC00018460020EBE700BF00C600202DE9F84F92
:104CD000EFF31186202383F31288BFF36F8FDFF881
:104CE000B4902A4D4FF0000A2860D9F800004FF028
:104CF000000B484508BF0020254C3746D4E9001E6C
:104D00002B6880B3D0E904864FEAE37C43457CEB13
:104D1000060206DAB8EB030266EB0C06C0E90426CD
:104D200021E018EB01014EEBE873C0E904ABC4E9E4
:104D30000013FFF78FFF87F31188BFF36F8F83682E
:104D40009847EFF31187202383F31288BFF36F8F07
:104D50002B68D9F80000A3EB080348453E462B60BA
:104D6000CBD1D4E9001E59184EEBE373C4E900130C
:104D700000242C60FFF78AFF2146FEF759FF87F3D6
:104D80001188BFF36F8FBDE8F88F00BFB03D0120E1
:104D900018C7002000C6002010B5EFF311842023AF
:104DA00083F31288BFF36F8FFFF74AFF0346054A6C
:104DB000D2E90001181841EBE37184F31188BFF3C5
:104DC0006F8F10BD18C7002010B50A4C23681BB1A7
:104DD00001232360002010BD00F046F80028F7D022
:104DE0000138062803D8044B53F8200010BD0348AF
:104DF00010BD00BFB43D0120B0830000FE8FFFFF57
:104E0000BFF34F8F0549064BCA6802F4E0621343B3
:104E1000CB60BFF34F8F00BFFDE700BF00ED00E0A8
:104E20000400FA0530B44FF0FE320025074B084C61
:104E300008494968C3F80024C3F80424C3F80824C7
:104E4000C3F80C24C4F8005530BC08470010845047
:104E50000000845008C60020024BD0E90012C3E9CC
:104E60000012704708C6002038B500F02FF820B1B6
:104E7000032400F063F8204638BD00F031F898B9FB
:104E800000F0ACF898B90F4DD5F828391B0EF02B6F
:104E900008D1D5F8242A0C4B9A420AD0072400F0F6
:104EA00017F8E6E70624FAE70424204638BD002474
:104EB000F5E7012000F092F804460028F7D1C5F884
:104EC0000C0AD8E7001084500000E0200020704752
:104ED00000207047014BC3F8040A7047001084504B
:104EE00010B5114800F048F800B110BD0F4800F0AF
:104EF00043F80028F9D10E4C204600F03DF8002878
:104F0000F3D10C4B0C481C6000F036F80146002829
:104F1000EBD100F02DF8044608B1204610BD00F09A
:104F20003FF82046FAE700BF20C600201CC600203C
:104F300018C6002010C6002014C6002008B5084876
:104F400000F024F8074800F021F8074800F01EF8A8
:104F5000064800F01BF8BDE8084000F00BB800BFA1
:104F600020C600201CC6002018C6002014C6002041
:104F700000207047704700BF08B5034B02681B68EC
:104F800010689847002008BD38C6002008B5034BBC
:104F900002685B6810689847002008BD38C600208A
:104FA00070B5094C094D2069AB68984718B1084B9A
:104FB00008485B6898470021074AEB681160206940
:104FC000BDE87040184700BF24C6002038C6002046
:104FD00008C60020CC830000B83D0120F8B51A4D6A
:104FE0001A4E0446B26828699047E8B9184F3B68E2
:104FF0004CB1A3B1012B19D0013B3B602869F36888
:1050000098470020F8BD43B90121124AC2F80015A3
:105010001149D1F81029002AFBD101333B60F36814
:10502000286998470020F8BD0C48F8BD0A4AD2F814
:105030001039002BFBD1074A6FF07E40C2F80035D3
:10504000FFF748FF3B68D7E724C6002038C600209A
:10505000B83D01200000845000108450E98FFFFF0C
:1050600010B5044650B1636813F0685F05D0064A76
:10507000934202D000236260236010BD034B0448BA
:105080005B689847EFE700BF2C5F5CA908C600206B
:10509000EC830000C8B143680D4A934213D013F06B
:1050A000685F0ED0012350E8002F194640E8001C2D
:1050B0009CF0000FF7D1012AF5D0BFF35F8F0020DD
:1050C000704704487047044870476FF4E0407047E9
:1050D0002C5F5CA9E98FFFFFEA8FFFFF034680B1D9
:1050E000426809498A420AD012F0685F05D0BFF3CE
:1050F0005F8F002210461A607047044870470448CA
:1051000070476FF4E04070472C5F5CA9E98FFFFFA8
:10511000EA8FFFFF10B5044620B10023034A236045
:10512000626010BD0248FFF77DFEF6E73A00003AE4
:105130001484000030B10268034B04489A4208BF4F
:105140000020704702487047DD55AABB8208F00076
:105150007108F00038B50D460446B0B1A022002118
:10516000043002F086FE95B10822294604F164005D
:1051700002F085FE082205F1200104F1840002F00E
:105180007EFE0020034B236038BD0348FCE7034844
:10519000FAE700BFDD55AABB7108F0008308F000F4
:1051A0002DE9F74305460E4699461146FFF7C2FF23
:1051B0000446002840F08480002E00F085800029FD
:1051C00000F08480B9F1200F40F0828005F14404A2
:1051D000082205F10408204602F051FE05F12407DB
:1051E00008223146404602F04AFE06F1200108221C
:1051F000384602F044FE02A941F8049D4FF4807045
:1052000002F031FE002865D14FF48073324A01214B
:10521000136093600823314A00F034FB0121052319
:1052200008462F4A00F02EFB0823424601211C208D
:1052300000F028FB08233A460121032000F022FB5E
:10524000224608230121022000F01CFB0823254AE6
:1052500001211A2000F016FB0523234A01211B20FF
:1052600000F010FB0823214A0121142000F00AFB62
:1052700008231F4A0121152000F004FB082305F133
:1052800064020121162000F0FDFA082305F18402D2
:105290000121172000F0F6FA0823164A01210B20FD
:1052A00000F0F0FA00F04AFB0446019800F0D8FA4A
:1052B000114B002C18BF1C46A421284602F0DBFD30
:1052C000204603B0BDE8F0830C4CF9E70C4CF7E73F
:1052D0000C4CF5E7084CEFE7901084507884000000
:1052E000F084000038840000DC8400009C8400000E
:1052F000BC840000588400008408F0007608F000A8
:105300008008F0008108F000C2690C4B1A608269C5
:1053100043F8042C426943F8082C026943F80C2C2A
:10532000C26843F8102C826843F8142C426843F892
:10533000182C026843F81C2C704700BF5C16845080
:105340000C4B1B68C3610C4B1B6883610B4B1B68C8
:1053500043610B4B1B6803610A4B1B68C3600A4B1C
:105360001B688360094B1B684360094B1B68036023
:10537000704700BF5C1684505816845054168450F1
:10538000501684504C16845048168450441684504D
:105390004016845030B10268034B04489A4208BF5B
:1053A0000020704702487047DD55AABB0202F0009A
:1053B0000002F00038B5044668B1051D702128468A
:1053C00002F059FD28462022044902F050FD002039
:1053D000034B236038BD0348FCE700BF0485000091
:1053E000DD55AABB0002F0002DE9F04385B015465B
:1053F0006F46274B04460E460FCB87E80F002DB9AA
:105400004FF00009484605B0BDE8F0832046FFF79D
:10541000C1FF81460028F5D1231D0193636AA3BB18
:10542000236F8BB1C3F14008A84528BFA84604F1FB
:10543000300031461844424602F019FD236F4644BD
:1054400043442367A5EB0805226F402A06D104F1E7
:105450003001384600F0B4FB0023236705F03F0815
:1054600035F03F0505D031462A46384600F0A8FB06
:105470002E44B8F1000FC3D04246314604F130004B
:1054800002F0F5FCC4F87080BCE7DFF80890B9E7DB
:10549000708100000C02F0002DE9FF4104466F46C8
:1054A000134B0E460FCB87E80F002046FFF772FF25
:1054B0008046B0B9CEB1636A251D01953BB9012381
:1054C000226F636204F13001384600F079FB2B460D
:1054D000043E243453F8042B12BAA34246F8042F96
:1054E000F8D1404604B0BDE8F081DFF80880F8E765
:1054F000708100000502F000084B1B681B0EF02BAA
:1055000008D1074B1A68074B9A4205D10020064B79
:10551000186070470520704706207047281984508E
:10552000241A84500000E0200C1A8450002230B568
:10553000134640F6FC754900023802F1A15404F507
:10554000823490424FEA840402F10102CABF236010
:1055500025605B181E2AF0D1034A13600B44536088
:10556000024B034A1A6030BD781084508410845076
:1055700020F80F001E4B30B51A4685B0196800910F
:105580000099CC07FAD500F1A15000F582308000D7
:10559000016813680193019BD807FAD5154B164C87
:1055A000186820231F3090FBF3F0144D01380028B9
:1055B00010DA00230130400153B14FF00042A0F156
:1055C0002001134204D1013888424FEA5202F8D137
:1055D00005B030BD13680393039BDB07FAD543186E
:1055E00023602B680293029B002BE3D10138DEE796
:1055F000B4108450AC108450E4108450DC108450FB
:10560000F0B51D6885B001F01F040DB91F2C28D11D
:10561000174D2E462F680197019FFF07FAD500F11D
:10562000A15000F582308000006835680395039D25
:10563000ED07FAD51F2C00EB611018BFC9430D4DC3
:1056400018BF01F01F0128600B4800680290029803
:105650001CBF00FA01F111604FF0000108BF10609B
:10566000196010684300C00F136005B0F0BD00BFA3
:10567000B4108450E4108450DC1084500C4B890129
:1056800018603F3020F03F00403058609960094872
:10569000D9601961596199611C3382B0196002683F
:1056A0000192019AD207FAD5196002B0704700BF83
:1056B00090108450B410845038B5A0F12003B3F595
:1056C000426F05462CD88F2826D800F1470300F1F9
:1056D0006604DB064FEA541400D0013464013F3401
:1056E000A409013411B1A1421AD30C464FF48050E1
:1056F000E300B0FBF3F0202828BF202002B11060A7
:105700000122084B21461A60FFF710FF2846214668
:10571000FFF7B4FF002038BD00F11F046409DDE786
:105720000148F8E71C1884502221F000464BF0B5E0
:105730001D4689B01C680194019CE407FAD5434BCF
:10574000002413449B001A680B181E2B88BFC0F15D
:105750001E011F320B1852095343B3F5806F84BFEB
:105760004FF48061B1FBF2F1274688BF091ADFF8D8
:10577000E4E000F1A150DFF8E0C000F58230A14282
:1057800033DC2B680493049BDB07FAD5304B1B6892
:10579000296805910599CF07FAD52E4C2E4923602B
:1057A00000231E46934203F1010040D11946002612
:1057B00020F0010228488A423CD8296806910699BF
:1057C000CE07FAD525490968286807900798C007C9
:1057D000FAD5216000210C461F488B422DD10020B4
:1057E0001D499A422CD809B0F0BD2B680293029B48
:1057F000DB07FAD503199B001B682E680396039EEE
:10580000F607FAD5CEF800300023934203F10103E6
:1058100006D1164623F00103B34204D80134AEE7A3
:10582000CCF80070F1E7CCF800700136F4E70E60B8
:105830000346B7E706600131BDE704600131CCE7FC
:1058400008600133CDE700BFB41084502404211454
:105850007C108450D4108450D81084507810845018
:1058600008B540B1202801464FF0070228BF20218B
:105870000020FFF75BFF0022014B1A6008BD00BF4C
:105880001C188450F0B5294D85B02C462E68009622
:10589000009EF607FAD500F1A15000F58230800095
:1058A0000568206801900198C707FAD52048214F64
:1058B000056002EB8306B24229D100275A1C1D4E17
:1058C00022F001029A4227D823680293029BDE0746
:1058D000FAD5194B0B449B001B681F335B099A4296
:1058E00013D2216803910399C907FAD50021154401
:1058F000056008469B1A0F4A8B4210D800205A1C9C
:105900000C4922F001029A420CD805B0F0BD52F8C1
:1059100004CBC7F800C0CEE737600133D2E7106090
:105920000131E9E708600133EDE700BFB4108450AE
:10593000D4108450D8108450240421142DE9F0414F
:10594000814BA0B01D68986820331E461A680192EA
:10595000019AD707FAD57D4B7D4A1A6032680292C8
:10596000029AD407FAD57B4A1A607B4A144611681A
:1059700003910399C907FAD5784A1168C1F3402108
:1059800037680497049FFF07FAD5754F1F60276893
:105990000597059FFF07FAD51768002900F0CF800B
:1059A000B90540F1CC80316806910699CF07FAD548
:1059B0006C491960216807910799C907FAD51168E0
:1059C000C1F3402137680897089FFF07FAD5664F53
:1059D0001F6027680997099FFF07FAD512680029F9
:1059E00000F0AF80910540F1AC8032680A920A9ACB
:1059F000D207FAD5564A1A6032680B920B9AD7072B
:105A0000FAD55A4A1A6031680C910C99CC07FAD52C
:105A10005749196031680D910D99C907FAD5554953
:105A2000196031680E910E99CF07FAD55249196065
:105A300031680F910F99CC07FAD550491960504B36
:105A40001E46196810911099C907FAD53F4C4D4B65
:105A5000236033681193119BDB07FAD54A4B23600F
:105A600033681293129BDF07FAD5484B23603A4BF9
:105A70009846196813911399C907FAD5324F3860BF
:105A800033681493149BDB07FAD5226033681593AF
:105A9000159BD807FAD53E4B236033681693169BA7
:105AA000D907FAD53B4B236033681793179BDA0766
:105AB000FAD5394B236033681893189BDB07FAD566
:105AC000364B236033681993199BD807FAD5344BAA
:105AD000236033681A931A9BD907FAD5314B236098
